:100000006F00C0006F0000006F0040039702000007
:10001000938202037390523073500030735030302B
:10002000735020307350403097210000938181CC71
:1000300017410000130101A76F00001E130101F812
:1000400023201100232221002324310023264100F4
:1000500023285100232A6100232C7100232E8100C4
:10006000232091022322A1022324B1022326C102CC
:100070002328D102232AE102232CF102232E01039B
:1000800023201105232221052324310523264105A0
:1000900023285105232A6105232C7105232E810570
:1000A000232091072322A1072324B1072326C10778
:1000B0002328D107232AE107232CF107F322103448
:1000C000232E510673252034F32510341306010026
:1000D000EF00404873101534B7220000938202806D
:1000E00073A002308320010003214100832181009D
:1000F0000322C100832201010323410183238101E3
:100100000324C101832401020325410283258102C6
:100110000326C102832601030327410383278103AA
:100120000328C1038328010403294104832981048E
:10013000032AC104832A0105032B4105832B810572
:10014000032CC105832C0106032D4106832D810656
:10015000032EC106832E0107032F4107832F81073A
:100160001301010873002030130101FE232E8100CA
:10017000130401022326A4FE2324B4FE2322C4FE7A
:100180006F00C0028327C4FE03A70700832784FEF5
:1001900023A0E7008327C4FE938747002326F4FEAD
:1001A000832784FE938747002324F4FE032784FEDD
:1001B000832744FEE3F8E7FC130000000324C10199
:1001C0001301010267800000130101FD2326810253
:1001D00013040103232EA4FC232CB4FC8327C4FDA9
:1001E0002326F4FE6F0080018327C4FE23A00700AE
:1001F0008327C4FE938747002326F4FE0327C4FE0B
:040000058000000077
:00000001FF
